:100000000C945A000C9477000C9477000C947700B1
:100010000C9477000C9476060C9477000C9477007F
:100020000C9477000C9477000C9477000C94770074
:100030000C9477000C9477000C9444060C94770091
:100040000C9477000C9477000C9477000C94770054
:100050000C9477000C9477000C9477000C94770044
:100060000C9477000C947700202020202020202062
:10007000202020202020202000202048756D696449
:1000800069747920202020006F75743A0020205474
:10009000656D70657261747572652020200020693D
:1000A0006E3A00202054656D7065726174757265DA
:1000B0002020200011241FBECFEFD8E0DEBFCDBF2F
:1000C00011E0A0E0B1E0E6EEFFE002C005900D9285
:1000D000A032B107D9F721E0A0E2B1E001C01D9242
:1000E000A434B207E1F70E94B5060C94F1070C9412
:1000F00000000E941B0385E38A95F1F7000080E071
:1001000090E0FC01EE5DFE4F108201968830910573
:10011000C1F70895883030F4E82FF0E0EE5DFE4F2F
:10012000808108958FEF0895883088F4683078F4DE
:10013000E82FF0E0EE5DFE4F8081082E000C990B59
:1001400002C0959587956A95E2F7817008958FEFC3
:100150000895CF93883088F4C62FE82FF0E0EE5D45
:10016000FE4F6083895D880F0E9421038C2F0E94BF
:1001700074030E946C0380E001C08FEFCF9108955B
:10018000CF938830D0F5A62FB0E0A41BB109AF3FC4
:100190009FEFB90794F16150673078F5442369F116
:1001A000942FE82FF0E0EE5DFE4FC081BD016F5F40
:1001B0007F4F022E000C330B062E01C0220F0A9433
:1001C000EAF741E050E002C0440F551F9A95E2F76C
:1001D0004150510901C0440F6A95EAF72C27422388
:1001E000C427C083895D880F0E9421038C2F0E9441
:1001F00074030E946C0380E001C08FEFCF910895DB
:10020000CF93DF938830F8F46830E8F4E82FF0E01B
:10021000EE5DFE4F9081C1E0D0E001C0CC0F6A9549
:10022000EAF7442311F0C92B02C0C095C923C0834B
:10023000895D880F0E9421038C2F0E9474030E9405
:100240006C0380E001C08FEFDF91CF91089541E012
:100250000C94000140E00C940001CF93883070F4BE
:1002600090E08796880F991F81600E9421030E9469
:100270008F03C82FC0950E946C0301C0CFEF8C2F55
:10028000CF910895CF93883010F08FEF10C0683071
:10029000E0F7C62F0E942D018F3FB9F3082E000C06
:1002A000990B02C095958795CA95E2F78170CF9119
:1002B000089562E080E00E94270100C062E080E0D3
:1002C0000C942A01CF93C82F80912001662311F04E
:1002D000816001C08E7F80932001809120018D7FFD
:1002E000809320016091200180E00E94A90080910C
:1002F00020018F7780932001809120018F7B809354
:100300002001809120018F7D809320018091200128
:100310008F7E80932001C7FF05C0809120018068F7
:1003200080932001C6FF05C08091200180648093E6
:100330002001C5FF05C080912001806280932001CB
:10034000C4FF05C0809120018061809320016091ED
:10035000200180E00E94A9000E94590180912001A3
:100360008F7780932001809120018F7B80932001E3
:10037000809120018F7D80932001809120018F7ECC
:1003800080932001C3FF05C0809120018068809385
:100390002001C2FF05C0809120018064809320016C
:1003A000C1FF05C080912001806280932001C0FFC1
:1003B00005C080912001806180932001609120011F
:1003C00080E00E94A9000E94590180912001806173
:1003D0008093200180912001806280932001809190
:1003E00020018064809320018091200180688093A7
:1003F00020016091200180E0CF910C94A900CF935F
:10040000DF93809120018E7F8093200180912001D5
:100410008260809320016091200180E00E94A90009
:1004200062E080E00E94270100C064E080E00E945A
:100430009400D82F62E080E00E942A0100C062E0B0
:1004400080E00E94270100C064E080E00E949400E8
:100450008F70D295D07FC82FCD2B62E080E00E94B4
:100460002A018C2FDF91CF9108950E94FF0187FD13
:10047000FCCF88E090E00197F1F70C94FF01CF9357
:10048000C82F0E94350260E08C2FCF910C9462013E
:10049000CF93C82F0E94350261E08C2FCF910C942E
:1004A0006201611102C0805801C080540C943F0267
:1004B0000E94350290E0089581E00C943F02882369
:1004C00021F080912001877F03C080912001886006
:1004D000809320016091200180E00C94A90082E0CB
:1004E0000C943F02CF93C82F0E943502CA3049F4C2
:1004F000803410F080E001C080E48058CF910C94EB
:100500003F02803119F460E080EC04C0803521F4B2
:1005100060E080E80E9462010E94350261E08C2F59
:10052000CF910C946201CF93DF93EC0189918823E2
:1005300019F00E947202FACFDF91CF910895CF9304
:10054000DF93CDB7DEB761970FB6F894DEBF0FBE6D
:10055000CDBF4AE050E0BE016F5F7F4F0E94B10700
:100560000E94930261960FB6F894DEBF0FBECDBF16
:10057000DF91CF910895CF93DF93FC018491EF0138
:100580002196882321F00E947202FE01F7CFDF91AD
:10059000CF9108951F93CF93DF93182F0E94790076
:1005A000109220016091200180E00E94A90080E06B
:1005B0009AEF0197F1F780912001806280932001EA
:1005C000809120018061809320016091200180E072
:1005D0000E94A9000E94590180E09EE40197F1F772
:1005E0000E945901C0E0D1E0CE010197F1F70E94CD
:1005F0005901CE010197F1F7809120018F7E809300
:1006000020016091200180E00E94A9000E94590110
:100610002197F1F788E20E943F0288E00E943F02A2
:100620000E945C0286E00E943F02812FDF91CF9101
:100630001F910C943F021092B9008CE08093B80097
:10064000089594EA9093BC009091BC0097FFFCCF72
:100650009091B900987F983021F0903111F081E0AD
:1006600008958093BB0084E88093BC008091BC0017
:1006700087FFFCCF8091B900887F883111F08034EA
:1006800071F780E0089524EA34E844E92093BC003F
:100690009091BC0097FFFCCF9091B900987F983063
:1006A00011F0903199F78093BB003093BC0090918A
:1006B000BC0097FFFCCF9091B900987F903211F069
:1006C000983539F44093BC009091BC0094FDFCCF68
:1006D000DDCF08950C94210384E98093BC008091C0
:1006E000BC0084FDFCCF08958093BB0084E8809318
:1006F000BC008091BC0087FFFCCF9091B900987F2F
:1007000081E0983209F480E0089584EC8093BC0085
:100710008091BC0087FFFCCF8091BB00089584E8E6
:100720008093BC008091BC0087FFFCCF8091BB0010
:1007300008950895FC01680F791F80E048E1E617ED
:10074000F70781F0219198E0382F3227532F51700D
:1007500030FD84278695513009F4806826959150A4
:1007600099F7EDCF08950F931F93CF93DF93CDB7F4
:10077000DEB760970FB6F894DEBF0FBECDBF90E135
:10078000E0E0F1E0DE01119601900D929A95E1F71B
:10079000DB01ED91FC911197803159F4EE7F93E0EC
:1007A000EE0FFF1F9A95E1F716969C91E91BF10950
:1007B0003C96F7FF07C091E0DA019C93F195E19533
:1007C000F10902C0DA011C92883281F4DB0114962F
:1007D0008C91982F9076903649F086FF02C0EE7F7C
:1007E00005C085FF02C0EC7F01C0E87FCF0144E077
:1007F000969587954A95E1F7D9018C93EF70FF277D
:1008000081E090E08C0F9D1FE80FF91F8081D801D7
:100810008C9380E060960FB6F894DEBF0FBECDBF1C
:10082000DF91CF911F910F910895882319F0719551
:1008300061957109442319F03195219531096217A9
:1008400073073CF081E090E02617370724F080E042
:1008500008958FEF9FEF08950F931F93CF93DF932A
:10086000EC018B01B80188810E94D30588838150F7
:100870008D3F30F4F8018081883211F0803191F79A
:10088000DF91CF911F910F910895EF92FF921F93E7
:10089000CF93DF93CDB7DEB729970FB6F894DEBFBD
:1008A0000FBECDBF8FEF89878AE2E82E81E0F82E58
:1008B00010E089858823F9F01230E9F0BE016F5FFE
:1008C0007F4FCE0109960E942C0489858E5F82306D
:1008D00090F0FE01319680E090E02191D701A80FC1
:1008E000B91F2C93019688309105B9F71F5F88E0F6
:1008F000E80EF11CDECF812F29960FB6F894DEBFEB
:100900000FBECDBFDF91CF911F91FF90EF90089563
:10091000CF93DF93EC010E948C0581110FC0BE01C3
:1009200084EB0E94200681E00E94AB05C82F0E9444
:100930008C0581E0C11103C080E001C081E0DF913E
:10094000CF9108950F931F93CF93DF93D82F8B01EF
:100950000E948C05C82F81110DC00E948305882339
:1009600059F0B80184E40E942006D13031F00E9491
:10097000860503C0C1E001C0C2E08C2FDF91CF919A
:100980001F910F9108954F925F926F927F928F9275
:100990009F92AF92BF92CF92DF92EF92FF920F930E
:1009A0001F93CF93DF93CDB7DEB729970FB6F89497
:1009B000DEBF0FBECDBF6C013B015A0189010E9411
:1009C0008C05811124C0B6018EEB0E942006CE0159
:1009D00001967C014E019AE0890E911C27010E942C
:1009E000D005F70181937F01E815F905C1F769E0AA
:1009F00070E0C2010E949A03F82E81110BC095018C
:100A0000A301B201F60180810E94B30305C0FF2457
:100A1000F39402C083E0F82E8F2D29960FB6F89438
:100A2000DEBF0FBECDBFDF91CF911F910F91FF9021
:100A3000EF90DF90CF90BF90AF909F908F907F907E
:100A40006F905F904F9008955F926F927F928F9218
:100A50009F92AF92BF92CF92DF92EF92FF920F934D
:100A60001F93CF93DF93CDB7DEB729970FB6F894D6
:100A7000DEBF0FBECDBF582E6B015A0189010E9407
:100A80008C05811124C060E070E08EEB0E9420068E
:100A9000CE0101967C014E019AE0890E911C37012E
:100AA0000E94D005F70181937F01E815F905C1F790
:100AB00069E070E0C3010E949A03F82E81110AC018
:100AC0009501A601B301852D0E94B30305C0FF2443
:100AD000F39402C083E0F82E8F2D29960FB6F89478
:100AE000DEBF0FBECDBFDF91CF911F910F91FF9061
:100AF000EF90DF90CF90BF90AF909F908F907F90BE
:100B00006F905F90089583B181700895289A209A1C
:100B100008952898209808952898209A8FE797E0BC
:100B20000197F1F700C000009FB7F8942098E7E024
:100B3000F1E03197F1F700C0000083B19FBFE7E714
:100B4000F6E03197F1F700C00000189B02C08170F9
:100B5000089581E008959FB7F894209A25E02A959A
:100B6000F1F700008111209820E52A95F1F7189BF4
:100B700080E020EF2A95F1F720989FBF0895CF934A
:100B8000DF93C82FD8E08C2F81700E94AB05C695EB
:100B90008111C068D150B9F78C2FDF91CF910895A2
:100BA0008FEF0C94BF05DF92EF92FF920F931F938C
:100BB000CF93DF93E82E8B010E948C05811135C005
:100BC00080EF0E94BF05D0E0C0E488EFD82EDC0E95
:100BD00081E00E94AB05F82E81E00E94AB058823DE
:100BE00019F0FF2071F023C0F1100BC0CE1530F0CA
:100BF000F801808180FF05C0CE1519F0DC2FFF249D
:100C0000F3948F2D0E94AB05F80180818695FF201B
:100C100011F08068F8018083C150CD11D9CF0F5FEA
:100C20001F4FC111D2CF8D2F03C08FEF01C08EEFA8
:100C3000DF91CF911F910F91FF90EF90DF9008957A
:100C4000EF92FF921F93CF93DF93182FEB010E9437
:100C50008C05209771F085E50E94BF057E0188E034
:100C6000E80EF11C89910E94BF05CE15DF05D1F772
:100C700003C08CEC0E94BF05812FDF91CF911F91A3
:100C8000FF90EF900C94BF051F920F920FB60F923A
:100C900011248F939F93809121018F5F8093210175
:100CA0008A30E8F091E090933E01809143018F5F9C
:100CB00080934301809143018A3048F010924301B0
:100CC00090933F0180913A018F5F80933A01809128
:100CD0003A018C3310F010923A01109221019F9149
:100CE0008F910F900FBE0F901F9018951F920F922B
:100CF0000FB60F9211248F934F9912C080913C012F
:100D0000811108C080913B018F5F80933B0181E09E
:100D100080933C0180913B01833010F010923B01A5
:100D20008F910F900FBE0F901F9018950E94510247
:100D300080914001882319F080E191E002C086E1B2
:100D400091E00E9493028091410190E00E949F02F5
:100D500082E191E00E94930280913D0190E00E9427
:100D60009F0284E191E00C949302389A5F9A84B5D3
:100D7000826084BD85B5856085BD8BE987BD809126
:100D80006E00826080936E00809168008460809322
:100D9000680080916D00806880936D008CE00E94F7
:100DA000CA0280E00E945F020E94450480934201D3
:100DB00060E070E081E00E94A2042FEF8EE994E2EF
:100DC000215080409040E1F700C000007894C0E0DE
:100DD000DAE080913C01882359F080913E0188231C
:100DE00039F0C13021F410923C01C0E001C0C1E0F3
:100DF00080913E01882309F497C08091430180FDD2
:100E00002DC080913B01811129C02DE331E041E4E7
:100E100051E060E471E08AE291E00E94C304811134
:100E200015C060E081E00E94510283EA90E00E94D8
:100E3000BB0261E084E00E9451028EE990E00E94D2
:100E4000BB0261E088E00E94960608C061E088E08D
:100E50000E94510288E191E00E9493028091430137
:100E600080FD2DC080913B01813049F52DE331E0BB
:100E700041E451E060E471E082E391E00E94C30448
:100E8000811115C060E081E00E9451028DE890E080
:100E90000E94BB0261E084E00E94510288E890E079
:100EA0000E94BB0261E088E00E94960608C061E0F3
:100EB00088E00E94510288E191E00E9493028091B3
:100EC000430180FD14C080913B01823081F460E0D9
:100ED00081E00E94510289E790E00E94BB0261E03C
:100EE00080E00E94510288E690E00E94BB0280915F
:100EF00043016D2F0E94A507911101C0409A809176
:100F000043016D2F0E94A507913011F488B118B8E4
:100F100060E080E00E94510280913B0190E00196E8
:100F20000E949F0210923E0180913F01882309F4A4
:100F300050CF80913A0180FD05C060E070E081E013
:100F40000E94A20410923F0144CF991B79E004C093
:100F5000991F961708F0961B881F7A95C9F78095F8
:100F600008954532510520F4423010F00C94BC072E
:100F7000FB011082CB010895BB274A3031F499233D
:100F800022F4BDE2909581959F4F0C94C807BB2732
:100F9000FB015527AA27880F991FAA1FA41710F035
:100FA000A41B83955051B9F7A05DAA3308F0A95D41
:100FB000A193009779F7B111B1931192CB010C94E1
:100FC000E107DC01FC01672F71917723E1F732978C
:100FD00004C07C916D9370836291AE17BF07C8F314
:060FE0000895F894FFCF14
:100FE60000010102020304040506060707080909B1
:100FF6002D002E0020432000206572726F722000A3
:00000001FF
