:100000000C943B000C9458000C9458000C9458002D
:100010000C9458000C9458000C9458000C94580000
:100020000C9458000C9458000C9458000C945800F0
:100030000C9458000C9458000C949E080C94580092
:100040000C9458000C9458000C9458000C945800D0
:100050000C9458000C9458000C9458000C945800C0
:100060000C9458000C94580054656D70657274615E
:100070007572613A200011241FBECFEFD8E0DEBFB9
:10008000CDBF11E0A0E0B1E0EEE1F2E102C00590E9
:100090000D92A032B107D9F721E0A0E2B1E001C092
:1000A0001D92A034B207E1F70E94A7070C940D0936
:1000B0000C9400000E94FC0285E38A95F1F7000091
:1000C00080E090E0FC01EE5DFE4F108201968830EA
:1000D0009105C1F70895883030F4E82FF0E0EE5D27
:1000E000FE4F808108958FEF0895883088F468303E
:1000F00078F4E82FF0E0EE5DFE4F8081082E000CD2
:10010000990B02C0959587956A95E2F781700895DD
:100110008FEF0895CF93883088F4C62FE82FF0E052
:10012000EE5DFE4F6083895D880F0E9402038C2F75
:100130000E9455030E944D0380E001C08FEFCF91D4
:100140000895CF938830D0F5A62FB0E0A41BB10955
:10015000AF3F9FEFB90794F16150673078F54423C2
:1001600069F1942FE82FF0E0EE5DFE4FC081BD01F4
:100170006F5F7F4F022E000C330B062E01C0220F43
:100180000A94EAF741E050E002C0440F551F9A95E7
:10019000E2F74150510901C0440F6A95EAF72C2754
:1001A0004223C427C083895D880F0E9402038C2FDD
:1001B0000E9455030E944D0380E001C08FEFCF9154
:1001C0000895CF93DF938830F8F46830E8F4E82F8F
:1001D000F0E0EE5DFE4F9081C1E0D0E001C0CC0FB9
:1001E0006A95EAF7442311F0C92B02C0C095C923D0
:1001F000C083895D880F0E9402038C2F0E945503E3
:100200000E944D0380E001C08FEFDF91CF910895F0
:1002100041E00C94E10040E00C94E100CF93883081
:1002200070F490E08796880F991F81600E94020306
:100230000E947003C82FC0950E944D0301C0CFEFEC
:100240008C2FCF910895CF93883010F08FEF10C08E
:100250006830E0F7C62F0E940E018F3FB9F3082ED9
:10026000000C990B02C095958795CA95E2F78170AD
:10027000CF91089562E080E00E94080100C062E032
:1002800080E00C940B01CF93C82F8091200166234E
:1002900011F0816001C08E7F809320018091200148
:1002A0008D7F809320016091200180E00E948A0070
:1002B000809120018F7780932001809120018F7B96
:1002C00080932001809120018F7D80932001809177
:1002D00020018F7E80932001C7FF05C080912001FF
:1002E000806880932001C6FF05C080912001806452
:1002F00080932001C5FF05C080912001806280931A
:100300002001C4FF05C080912001806180932001FD
:100310006091200180E00E948A000E943A01809151
:1003200020018F7780932001809120018F7B809323
:100330002001809120018F7D8093200180912001F8
:100340008F7E80932001C3FF05C0809120018068CB
:1003500080932001C2FF05C08091200180648093BA
:100360002001C1FF05C0809120018062809320019F
:10037000C0FF05C0809120018061809320016091C1
:10038000200180E00E948A000E943A0180912001B1
:100390008061809320018091200180628093200100
:1003A00080912001806480932001809120018068E9
:1003B000809320016091200180E0CF910C948A000D
:1003C000CF93DF93809120018E7F809320018091D5
:1003D00020018260809320016091200180E00E94D2
:1003E0008A0062E080E00E94080100C064E080E0D2
:1003F0000E947500D82F62E080E00E940B0100C0CF
:1004000062E080E00E94080100C064E080E00E9499
:1004100075008F70D295D07FC82FCD2B62E080E021
:100420000E940B018C2FDF91CF9108950E94E00173
:1004300087FDFCCF88E090E00197F1F70C94E00194
:10044000CF93C82F0E94160260E08C2FCF910C949E
:100450004301CF93C82F0E94160261E08C2FCF91E9
:100460000C944301611102C0805801C080540C9467
:1004700020020E94160290E0089581E00C94200270
:10048000882321F080912001877F03C08091200183
:100490008860809320016091200180E00C948A00A4
:1004A00082E00C942002CF93C82F0E941602CA301B
:1004B00049F4803410F080E001C080E48058CF918E
:1004C0000C942002803119F460E080EC04C0803587
:1004D00021F460E080E80E9443010E94160261E07E
:1004E0008C2FCF910C944301CF93DF93EC01899132
:1004F000882319F00E945302FACFDF91CF9108951B
:10050000CF93DF93CDB7DEB761970FB6F894DEBF18
:100510000FBECDBF4AE050E0BE016F5F7F4F0E942B
:10052000CD080E94740261960FB6F894DEBF0FBE2C
:10053000CDBFDF91CF910895CF93DF93FC018491DC
:10054000EF012196882321F00E945302FE01F7CF8C
:10055000DF91CF9108951F93CF93DF93182F0E94BF
:100560005A00109220016091200180E00E948A00D0
:1005700080E09AEF0197F1F78091200180628093EB
:1005800020018091200180618093200160912001F1
:1005900080E00E948A000E943A0180E09EE4019778
:1005A000F1F70E943A01C0E0D1E0CE010197F1F7E6
:1005B0000E943A01CE010197F1F7809120018F7ED0
:1005C000809320016091200180E00E948A000E94B7
:1005D0003A012197F1F788E20E94200288E00E9408
:1005E00020020E943D0286E00E942002812FDF91BE
:1005F000CF911F910C9420021092B9008CE080934F
:10060000B800089594EA9093BC009091BC0097FFC5
:10061000FCCF9091B900987F983021F0903111F083
:1006200081E008958093BB0084E88093BC008091B2
:10063000BC0087FFFCCF8091B900887F883111F022
:10064000803471F780E0089524EA34E844E9209387
:10065000BC009091BC0097FFFCCF9091B900987FAF
:10066000983011F0903199F78093BB003093BC0023
:100670009091BC0097FFFCCF9091B900987F903289
:1006800011F0983539F44093BC009091BC0094FD72
:10069000FCCFDDCF08950C94020384E98093BC0065
:1006A0008091BC0084FDFCCF08958093BB0084E85A
:1006B0008093BC008091BC0087FFFCCF9091B90073
:1006C000987F81E0983209F480E0089584EC80936B
:1006D000BC008091BC0087FFFCCF8091BB000895D7
:1006E00084E88093BC008091BC0087FFFCCF8091A0
:1006F000BB0008958BB1806D8BB95E985C985F9854
:1007000008955E985C985C9A85E18A95F1F70000FF
:100710000895579A98E05F9880FD5F9A5E982AE066
:100720002A95F1F700C05E9A2AE02A95F1F700C0F9
:100730008695915081F70895CF93DF93D82FC62FD8
:100740000E9481038D2F0E9489038C2F0E948903B0
:100750005C985E98DF91CF910895579898E080E07B
:100760005E9A2AE02A95F1F700C05E982AE02A9561
:10077000F1F700C029B186952078822B915081F73E
:100780000895CF93C82F0E9481038C2F0E94890364
:100790000E94AD035C985E98CF910895CF93DF934C
:1007A000EC01842F2F3009F06AC0643181F481E8B4
:1007B0000E94C103982F9077969596959695292F2C
:1007C000220F220F920F8F70890F8883CCC0653162
:1007D00079F483E80E94C103982F907796959695B7
:1007E0009695292F220F220F920F8F70890F45C0E7
:1007F000663191F485E80E94C1039CE09F83982FA5
:100800009073969596959695292F220F220F920F09
:100810008F70890F8A83A7C0673181F487E80E94AF
:10082000C103982F9073969596959695292F220F30
:10083000220F920F8F70890F8C8395C0683179F4E5
:1008400089E80E94C10384FB992790F9990F292F09
:10085000220F220F920F8F70890F8D8384C0693110
:1008600009F081C08DE80E94C103982F92959F7076
:100870008F702AE0929F800D1124898374C02031EB
:1008800009F071C0643161F46AE00E94C108692F07
:1008900020E1829FC00111248077682B80E85FC02F
:1008A000653161F46AE00E94C108692F20E1829FEE
:1008B000C00111248077682B82E851C0663139F578
:1008C0006F816A3049F40E94C10820E1829FB00123
:1008D0001124607190680BC06B3059F46AE00E947B
:1008E000C10820E1829FB00111246071906A692BD8
:1008F0000CC06C30C1F56AE00E94C108692F20E18C
:10090000829FC00111248073682B84E828C067315E
:1009100061F46AE00E94C108692F20E1829FC00152
:1009200011248073682B86E81AC0683161F46AE08C
:100930000E94C108692F20E1829FC00111248071AB
:10094000682B88E80CC0693171F46AE00E94C10824
:10095000692F20E1829FC0011124682B8CE8DF9170
:10096000CF910C949C03DF91CF9108952FE040E04C
:100970000C94CE03CF93DF93EC0164E10E94B604A4
:1009800065E1CE010E94B60466E1CE010E94B60484
:1009900066E1CE010E94B60467E1CE010E94B60472
:1009A00068E1CE010E94B60469E1CE01DF91CF91EA
:1009B0000C94B60420E10C94CE03FC01680F791F5F
:1009C00080E048E1E617F70781F0219198E0382FA1
:1009D0003227532F517030FD84278695513009F40A
:1009E00080682695915099F7EDCF08950F931F9346
:1009F000CF93DF93CDB7DEB760970FB6F894DEBF25
:100A00000FBECDBF90E1E0E0F1E0DE011196019074
:100A10000D929A95E1F7DB01ED91FC9111978031F0
:100A200059F4EE7F93E0EE0FFF1F9A95E1F71696CB
:100A30009C91E91BF1093C96F7FF07C091E0DA01B0
:100A40009C93F195E195F10902C0DA011C9288327C
:100A500081F4DB0114968C91982F9076903649F0B2
:100A600086FF02C0EE7F05C085FF02C0EC7F01C09B
:100A7000E87FCF0144E0969587954A95E1F7D90143
:100A80008C93EF70FF2781E090E08C0F9D1FE80FA3
:100A9000F91F8081D8018C9380E060960FB6F8949E
:100AA000DEBF0FBECDBFDF91CF911F910F91089593
:100AB000882319F0719561957109442319F03195D6
:100AC00021953109621773073CF081E090E0261709
:100AD000370724F080E008958FEF9FEF08950F937C
:100AE0001F93CF93DF93EC018B01B80188810E94A3
:100AF0001607888381508D3F30F4F8018081883259
:100B000011F0803191F7DF91CF911F910F910895EE
:100B1000EF92FF921F93CF93DF93CDB7DEB7299764
:100B20000FB6F894DEBF0FBECDBF8FEF89878AE284
:100B3000E82E81E0F82E10E089858823F9F0123044
:100B4000E9F0BE016F5F7F4FCE0109960E946F05ED
:100B500089858E5F823090F0FE01319680E090E0D2
:100B60002191D701A80FB91F2C93019688309105C8
:100B7000B9F71F5F88E0E80EF11CDECF812F2996C0
:100B80000FB6F894DEBF0FBECDBFDF91CF911F919E
:100B9000FF90EF900895CF93DF93EC010E94CF0672
:100BA00081110FC0BE0184EB0E94630781E00E94A7
:100BB000EE06C82F0E94CF0681E0C11103C080E07D
:100BC00001C081E0DF91CF9108950F931F93CF93E0
:100BD000DF93D82F8B010E94CF06C82F81110DC043
:100BE0000E94C606882359F0B80184E40E94630776
:100BF000D13031F00E94C90603C0C1E001C0C2E09B
:100C00008C2FDF91CF911F910F9108954F925F929A
:100C10006F927F928F929F92AF92BF92CF92DF920C
:100C2000EF92FF920F931F93CF93DF93CDB7DEB771
:100C300029970FB6F894DEBF0FBECDBF6C013B0104
:100C40005A0189010E94CF06811124C0B6018EEBA2
:100C50000E946307CE0101967C014E019AE0890E45
:100C6000911C27010E941307F70181937F01E8156A
:100C7000F905C1F769E070E0C2010E94DD04F82EB9
:100C800081110BC09501A301B201F60180810E9480
:100C9000F60405C0FF24F39402C083E0F82E8F2DE4
:100CA00029960FB6F894DEBF0FBECDBFDF91CF916E
:100CB0001F910F91FF90EF90DF90CF90BF90AF907A
:100CC0009F908F907F906F905F904F9008955F926C
:100CD0006F927F928F929F92AF92BF92CF92DF924C
:100CE000EF92FF920F931F93CF93DF93CDB7DEB7B1
:100CF00029970FB6F894DEBF0FBECDBF582E6B01FB
:100D00005A0189010E94CF06811124C060E070E081
:100D10008EEB0E946307CE0101967C014E019AE0A2
:100D2000890E911C37010E941307F70181937F01FF
:100D3000E815F905C1F769E070E0C3010E94DD0420
:100D4000F82E81110AC09501A601B301852D0E94DC
:100D5000F60405C0FF24F39402C083E0F82E8F2D23
:100D600029960FB6F894DEBF0FBECDBFDF91CF91AD
:100D70001F910F91FF90EF90DF90CF90BF90AF90B9
:100D80009F908F907F906F905F90089583B1817056
:100D90000895289A209A08952898209808952898C8
:100DA000209A8FE797E00197F1F700C000009FB706
:100DB000F8942098E7E0F1E03197F1F700C00000E7
:100DC00083B19FBFE7E7F6E03197F1F700C000007D
:100DD000189B02C08170089581E008959FB7F89430
:100DE000209A25E02A95F1F700008111209820E54E
:100DF0002A95F1F7189B80E020EF2A95F1F72098CB
:100E00009FBF0895CF93DF93C82FD8E08C2F8170B8
:100E10000E94EE06C6958111C068D150B9F78C2F9B
:100E2000DF91CF9108958FEF0C940207DF92EF923C
:100E3000FF920F931F93CF93DF93E82E8B010E94B5
:100E4000CF06811135C080EF0E940207D0E0C0E4D8
:100E500088EFD82EDC0E81E00E94EE06F82E81E0AD
:100E60000E94EE06882319F0FF2071F023C0F110D4
:100E70000BC0CE1530F0F801808180FF05C0CE1583
:100E800019F0DC2FFF24F3948F2D0E94EE06F80159
:100E900080818695FF2011F08068F8018083C15021
:100EA000CD11D9CF0F5F1F4FC111D2CF8D2F03C0EE
:100EB0008FEF01C08EEFDF91CF911F910F91FF90C7
:100EC000EF90DF900895EF92FF921F93CF93DF93FF
:100ED000182FEB010E94CF06209771F085E50E9444
:100EE00002077E0188E0E80EF11C89910E9402074A
:100EF000CE15DF05D1F703C08CEC0E940207812FCD
:100F0000DF91CF911F91FF90EF900C94020761E069
:100F10000E94320280913D01882319F080E191E026
:100F200002C086E191E00E94740280913E0190E04F
:100F30000E94800282E191E00E94740280913B0154
:100F400090E00E94800284E191E00C947402CF93BF
:100F5000DF93CDB7DEB728970FB6F894DEBF0FBE8C
:100F6000CDBF87B1876087B9409A84B5826084BD60
:100F700085B5856085BD8BE987BD80916E008260F7
:100F800080936E008CE00E94AB0280E00E944002E1
:100F90000E94880580933F0160E070E081E00E943C
:100FA000E5052FEF8EE994E2215080409040E1F773
:100FB00000C000002BE331E04EE351E06DE371E04F
:100FC0008AE291E00E940606811103C00E94870711
:100FD00008C060E081E00E94320288E191E00E9456
:100FE00074022BE331E04EE351E06DE371E082E304
:100FF00091E00E940606811104C089E00E948707E3
:1010000008C069E081E00E94320288E191E00E941C
:10101000740278940E947A03CE0101960E94BA0469
:101020004FE164E1CE0101960E94DA0460E080E0C5
:101030000E94320288E690E00E949C0213E001E0E8
:1010400082E0F82E94E0E92E64E1CE0101960E9440
:10105000B60460E080E00E943202898190E00E9444
:10106000800280913C01882379F380913A01612FBD
:101070000E94C108911117C0EAE2F1E0119221E04B
:10108000EA33F207D9F70E94880580933F0160E0B8
:101090008EE00E94320280913F0190E00E94800227
:1010A00088B1802788B980913A01612F0E94C108D8
:1010B000913041F460E070E081E00E94E50588B184
:1010C0008F2588B980913A01612F0E94C108923022
:1010D00091F52BE331E04EE351E06DE371E08AE2FC
:1010E00091E00E940606811103C00E94870708C094
:1010F00061E080E00E94320288E191E00E94740287
:101100002BE331E04EE351E06DE371E082E391E0E7
:101110000E940606811104C089E00E94870708C06A
:1011200061E089E00E94320288E191E00E9474024D
:1011300088B18E2588B910923C0186CF1F920F92FC
:101140000FB60F9211248F93809121018F5F8093AE
:101150002101843680F081E080933C0180913A0146
:101160008F5F80933A0180913A018C3310F0109296
:101170003A01109221018F910F900FBE0F901F9096
:101180001895991B79E004C0991F961708F0961BD3
:10119000881F7A95C9F7809508954532510520F446
:1011A000423010F00C94D808FB011082CB01089556
:1011B000BB274A3031F4992322F4BDE29095819502
:1011C0009F4F0C94E408BB27FB015527AA27880FE3
:1011D000991FAA1FA41710F0A41B83955051B9F7AB
:1011E000A05DAA3308F0A95DA193009779F7B1112A
:1011F000B1931192CB010C94FD08DC01FC01672F27
:1012000071917723E1F7329704C07C916D937083DD
:0E1210006291AE17BF07C8F30895F894FFCFA0
:10121E000001010202030404050606070708090976
:10122E002D002E0020432000206572726F72200068
:00000001FF
