:100000000C9438000C9455000C9455000C94550039
:100010000C9455000C9455000C9455000C9455000C
:100020000C9455000C9455000C9455000C945500FC
:100030000C9455000C9455000C9413070C94550027
:100040000C9455000C9455000C9455000C945500DC
:100050000C9455000C9455000C9455000C945500CC
:100060000C9455000C94550054323A0054313A0027
:1000700011241FBECFEFD8E0DEBFCDBF11E0A0E05E
:10008000B1E0E8E0FFE002C005900D92A032B107B8
:10009000D9F721E0A0E2B1E001C01D92A034B2077F
:1000A000E1F70E9440060C9482070C9400000E9425
:1000B000F90285E38A95F1F7000080E090E0FC0109
:1000C000EE5DFE4F1082019688309105C1F70895CC
:1000D000883030F4E82FF0E0EE5DFE4F8081089527
:1000E0008FEF0895883088F4683078F4E82FF0E0D6
:1000F000EE5DFE4F8081082E000C990B02C0959595
:1001000087956A95E2F7817008958FEF0895CF93F0
:10011000883088F4C62FE82FF0E0EE5DFE4F608354
:10012000895D880F0E94FF028C2F0E9452030E945B
:100130004A0380E001C08FEFCF910895CF938830BC
:10014000D0F5A62FB0E0A41BB109AF3F9FEFB907D0
:1001500094F16150673078F5442369F1942FE82FCA
:10016000F0E0EE5DFE4FC081BD016F5F7F4F022E5C
:10017000000C330B062E01C0220F0A94EAF741E06F
:1001800050E002C0440F551F9A95E2F741505109C3
:1001900001C0440F6A95EAF72C274223C427C08385
:1001A000895D880F0E94FF028C2F0E9452030E94DB
:1001B0004A0380E001C08FEFCF910895CF93DF9382
:1001C0008830F8F46830E8F4E82FF0E0EE5DFE4F98
:1001D0009081C1E0D0E001C0CC0F6A95EAF74423DA
:1001E00011F0C92B02C0C095C923C083895D880F57
:1001F0000E94FF028C2F0E9452030E944A0380E05B
:1002000001C08FEFDF91CF91089541E00C94DE00A3
:1002100040E00C94DE00CF93883070F490E0879635
:10022000880F991F81600E94FF020E946D03C82FF2
:10023000C0950E944A0301C0CFEF8C2FCF91089543
:10024000CF93883010F08FEF10C06830E0F7C62FE2
:100250000E940B018F3FB9F3082E000C990B02C0CE
:1002600095958795CA95E2F78170CF91089562E0E0
:1002700080E00E94050100C062E080E00C9408016B
:10028000CF93C82F80912001662311F0816001C0B7
:100290008E7F80932001809120018D7F80932001AB
:1002A0006091200180E00E948700809120018F777B
:1002B00080932001809120018F7B80932001809189
:1002C00020018F7D80932001809120018F7E80937B
:1002D0002001C7FF05C08091200180688093200124
:1002E000C6FF05C080912001806480932001C5FF76
:1002F00005C080912001806280932001C4FF05C069
:10030000809120018061809320016091200180E034
:100310000E9487000E943701809120018F7780938F
:100320002001809120018F7B80932001809120010A
:100330008F7D80932001809120018F7E809320010A
:10034000C3FF05C080912001806880932001C2FF17
:1003500005C080912001806480932001C1FF05C009
:1003600080912001806280932001C0FF05C08091B0
:1003700020018061809320016091200180E00E9433
:1003800087000E94370180912001806180932001C5
:1003900080912001806280932001809120018064FF
:1003A00080932001809120018068809320016091DA
:1003B000200180E0CF910C948700CF93DF93809150
:1003C00020018E7F809320018091200182608093A4
:1003D00020016091200180E00E94870062E080E0BF
:1003E0000E94050100C064E080E00E947200D82FE6
:1003F00062E080E00E94080100C062E080E00E94AC
:10040000050100C064E080E00E9472008F70D29508
:10041000D07FC82FCD2B62E080E00E9408018C2F96
:10042000DF91CF9108950E94DD0187FDFCCF88E028
:1004300090E00197F1F70C94DD01CF93C82F0E9453
:10044000130260E08C2FCF910C944001CF93C82F02
:100450000E94130261E08C2FCF910C944001611136
:1004600002C0805801C080540C941D020E941302E7
:1004700090E0089581E00C941D02882321F0809182
:100480002001877F03C08091200188608093200134
:100490006091200180E00C94870082E00C941D02A2
:1004A000CF93C82F0E941302CA3049F4803410F051
:1004B00080E001C080E48058CF910C941D0280310F
:1004C00019F460E080EC04C0803521F460E080E83D
:1004D0000E9440010E94130261E08C2FCF910C9486
:1004E0004001CF93DF93EC018991882319F00E949A
:1004F0005002FACFDF91CF910895CF93DF93CDB71C
:10050000DEB761970FB6F894DEBF0FBECDBF4AE0ED
:1005100050E0BE016F5F7F4F0E9442070E94710250
:1005200061960FB6F894DEBF0FBECDBFDF91CF91BD
:100530000895CF93DF93FC018491EF0121968823E6
:1005400021F00E945002FE01F7CFDF91CF91089574
:100550001F93CF93DF93182F0E9457001092200112
:100560006091200180E00E94870080E09AEF01976F
:10057000F1F7809120018062809320018091200119
:100580008061809320016091200180E00E948700BB
:100590000E94370180E09EE40197F1F70E94370145
:1005A000C0E0D1E0CE010197F1F70E943701CE0102
:1005B0000197F1F7809120018F7E80932001609157
:1005C000200180E00E9487000E9437012197F1F707
:1005D00088E20E941D0288E00E941D020E943A02E9
:1005E00086E00E941D02812FDF91CF911F910C9414
:1005F0001D021092B9008CE08093B800089594EA2F
:100600009093BC009091BC0097FFFCCF9091B900F3
:10061000987F983021F0903111F081E00895809317
:10062000BB0084E88093BC008091BC0087FFFCCFB6
:100630008091B900887F883111F0803471F780E0B3
:10064000089524EA34E844E92093BC009091BC006A
:1006500097FFFCCF9091B900987F983011F09031BE
:1006600099F78093BB003093BC009091BC0097FF3A
:10067000FCCF9091B900987F903211F0983539F401
:100680004093BC009091BC0094FDFCCFDDCF089559
:100690000C94FF0284E98093BC008091BC0084FD2F
:1006A000FCCF08958093BB0084E88093BC008091C8
:1006B000BC0087FFFCCF9091B900987F81E0983211
:1006C00009F480E0089584EC8093BC008091BC0024
:1006D00087FFFCCF8091BB00089584E88093BC0025
:1006E0008091BC0087FFFCCF8091BB000895FC0186
:1006F000680F791F80E048E1E617F70781F0219144
:1007000098E0382F3227532F517030FD842786957B
:10071000513009F480682695915099F7EDCF0895EE
:100720000F931F93CF93DF93CDB7DEB760970FB6CC
:10073000F894DEBF0FBECDBF90E1E0E0F1E0DE0156
:10074000119601900D929A95E1F7DB01ED91FC91E4
:100750001197803159F4EE7F93E0EE0FFF1F9A95C9
:10076000E1F716969C91E91BF1093C96F7FF07C04B
:1007700091E0DA019C93F195E195F10902C0DA016B
:100780001C92883281F4DB0114968C91982F90761C
:10079000903649F086FF02C0EE7F05C085FF02C09B
:1007A000EC7F01C0E87FCF0144E0969587954A959C
:1007B000E1F7D9018C93EF70FF2781E090E08C0F77
:1007C0009D1FE80FF91F8081D8018C9380E060960F
:1007D0000FB6F894DEBF0FBECDBFDF91CF911F9152
:1007E0000F910895882319F071956195710944233B
:1007F00019F0319521953109621773073CF081E0BA
:1008000090E02617370724F080E008958FEF9FEFE0
:1008100008950F931F93CF93DF93EC018B01B801E1
:1008200088810E94B005888381508D3F30F4F801A3
:100830008081883211F0803191F7DF91CF911F9143
:100840000F910895EF92FF921F93CF93DF93CDB74F
:10085000DEB729970FB6F894DEBF0FBECDBF8FEF7E
:1008600089878AE2E82E81E0F82E10E089858823C6
:10087000F9F01230E9F0BE016F5F7F4FCE010996AB
:100880000E94090489858E5F823090F0FE013196C6
:1008900080E090E02191D701A80FB91F2C93019619
:1008A00088309105B9F71F5F88E0E80EF11CDECFB4
:1008B000812F29960FB6F894DEBF0FBECDBFDF9112
:1008C000CF911F91FF90EF900895CF93DF93EC01AC
:1008D0000E94690581110FC0BE0184EB0E94FD05D5
:1008E00081E00E948805C82F0E94690581E0C1113E
:1008F00003C080E001C081E0DF91CF9108950F93A4
:100900001F93CF93DF93D82F8B010E946905C82FC7
:1009100081110DC00E946005882359F0B80184E45C
:100920000E94FD05D13031F00E94630503C0C1E093
:1009300001C0C2E08C2FDF91CF911F910F910895DC
:100940004F925F926F927F928F929F92AF92BF92DF
:10095000CF92DF92EF92FF920F931F93CF93DF938B
:10096000CDB7DEB729970FB6F894DEBF0FBECDBF67
:100970006C013B015A0189010E946905811124C063
:10098000B6018EEB0E94FD05CE0101967C014E0161
:100990009AE0890E911C27010E94AD05F701819311
:1009A0007F01E815F905C1F769E070E0C2010E9416
:1009B0007703F82E81110BC09501A301B201F60156
:1009C00080810E94900305C0FF24F39402C083E05D
:1009D000F82E8F2D29960FB6F894DEBF0FBECDBF2F
:1009E000DF91CF911F910F91FF90EF90DF90CF900B
:1009F000BF90AF909F908F907F906F905F904F903F
:100A000008955F926F927F928F929F92AF92BF9262
:100A1000CF92DF92EF92FF920F931F93CF93DF93CA
:100A2000CDB7DEB729970FB6F894DEBF0FBECDBFA6
:100A3000582E6B015A0189010E946905811124C059
:100A400060E070E08EEB0E94FD05CE0101967C0116
:100A50004E019AE0890E911C37010E94AD05F70105
:100A600081937F01E815F905C1F769E070E0C301E2
:100A70000E947703F82E81110AC09501A601B301E7
:100A8000852D0E94900305C0FF24F39402C083E0EB
:100A9000F82E8F2D29960FB6F894DEBF0FBECDBF6E
:100AA000DF91CF911F910F91FF90EF90DF90CF904A
:100AB000BF90AF909F908F907F906F905F900895C0
:100AC00083B181700895289A209A089528982098D3
:100AD00008952898209A8FE797E00197F1F700C0D2
:100AE00000009FB7F8942098E7E0F1E03197F1F724
:100AF00000C0000083B19FBFE7E7F6E03197F1F750
:100B000000C00000189B02C08170089581E0089524
:100B10009FB7F894209A25E02A95F1F700008111FB
:100B2000209820E52A95F1F7189B80E020EF2A9580
:100B3000F1F720989FBF0895CF93DF93C82FD8E097
:100B40008C2F81700E948805C6958111C068D15094
:100B5000B9F78C2FDF91CF9108958FEF0C949C05FE
:100B6000DF92EF92FF920F931F93CF93DF93E82EC4
:100B70008B010E946905811135C080EF0E949C05A0
:100B8000D0E0C0E488EFD82EDC0E81E00E9488051A
:100B9000F82E81E00E948805882319F0FF2071F06B
:100BA00023C0F1100BC0CE1530F0F801808180FF1A
:100BB00005C0CE1519F0DC2FFF24F3948F2D0E9471
:100BC0008805F80180818695FF2011F08068F80182
:100BD0008083C150CD11D9CF0F5F1F4FC111D2CF2C
:100BE0008D2F03C08FEF01C08EEFDF91CF911F914A
:100BF0000F91FF90EF90DF900895EF92FF921F9377
:100C0000CF93DF93182FEB010E946905209771F0B5
:100C100085E50E949C057E0188E0E80EF11C899123
:100C20000E949C05CE15DF05D1F703C08CEC0E9415
:100C30009C05812FDF91CF911F91FF90EF900C9435
:100C40009C050E942F0280913D01882319F080E1CC
:100C500091E002C086E191E00E94710280913E0124
:100C600090E00E947D0282E191E00E9471028091F9
:100C70003B0190E00E947D0284E191E00C947102BE
:100C8000389A84B5826084BD85B5856085BD8BE961
:100C900087BD80916E00826080936E008CE00E9420
:100CA000A80280E00E943D020E94220480933F013E
:100CB00060E070E081E00E947F042FEF8EE994E213
:100CC000215080409040E1F700C000002BE331E06C
:100CD0004EE351E06DE371E08AE291E00E94A004EE
:100CE00060E0811104C083E00E94210607C083E018
:100CF0000E942F0288E191E00E9471022BE331E013
:100D00004EE351E06DE371E082E391E00E94A004C4
:100D100061E0811104C083E00E94210607C083E0E6
:100D20000E942F0288E191E00E947102789460E0B5
:100D300080E00E942F028CE690E00E94990261E020
:100D400080E00E942F0288E690E00E949902C3E0B2
:100D500080913C018823E1F380913A016C2F0E943D
:100D60003607911114C0EAE2F1E0119221E0EA3372
:100D7000F207D9F70E94220480933F0160E08FE0E0
:100D80000E942F0280913F0190E00E947D0280919D
:100D90003A016C2F0E943607913029F460E070E030
:100DA00081E00E947F0480913A016C2F0E943607F7
:100DB000923081F52BE331E04EE351E06DE371E0D9
:100DC0008AE291E00E94A00460E0811104C083E007
:100DD0000E94210607C083E00E942F0288E191E073
:100DE0000E9471022BE331E04EE351E06DE371E0CC
:100DF00082E391E00E94A00461E0811104C083E0DD
:100E00000E94210607C083E00E942F0288E191E042
:100E10000E94710280913A0198B181E0892788B9D6
:100E200010923C0195CF1F920F920FB60F92112492
:100E30008F93809121018F5F80932101843680F010
:100E400081E080933C0180913A018F5F80933A0169
:100E500080913A018C3310F010923A0110922101E6
:100E60008F910F900FBE0F901F901895991B79E0EE
:100E700004C0991F961708F0961B881F7A95C9F72A
:100E8000809508954532510520F4423010F00C94BD
:100E90004D07FB011082CB010895BB274A3031F486
:100EA000992322F4BDE2909581959F4F0C945907A8
:100EB000BB27FB015527AA27880F991FAA1FA41734
:100EC00010F0A41B83955051B9F7A05DAA3308F028
:100ED000A95DA193009779F7B111B1931192CB015C
:100EE0000C947207DC01FC01672F71917723E1F705
:100EF000329704C07C916D9370836291AE17BF07E7
:080F0000C8F30895F894FFCF37
:100F0800000101020203040405060607070809098F
:100F18002D002E0020432000206572726F72200081
:00000001FF
